{
  "contractName": "Inheritance",
  "abi": [
    {
      "inputs": [
        {
          "internalType": "address",
          "name": "_heir",
          "type": "address"
        },
        {
          "internalType": "uint256",
          "name": "_checkInIntervalDays",
          "type": "uint256"
        }
      ],
      "stateMutability": "nonpayable",
      "type": "constructor"
    },
    {
      "anonymous": false,
      "inputs": [
        {
          "indexed": false,
          "internalType": "address",
          "name": "owner",
          "type": "address"
        }
      ],
      "name": "CheckIn",
      "type": "event"
    },
    {
      "anonymous": false,
      "inputs": [
        {
          "indexed": false,
          "internalType": "address",
          "name": "from",
          "type": "address"
        },
        {
          "indexed": false,
          "internalType": "uint256",
          "name": "amount",
          "type": "uint256"
        }
      ],
      "name": "Deposited",
      "type": "event"
    },
    {
      "anonymous": false,
      "inputs": [
        {
          "indexed": false,
          "internalType": "address",
          "name": "newHeir",
          "type": "address"
        }
      ],
      "name": "HeirChanged",
      "type": "event"
    },
    {
      "anonymous": false,
      "inputs": [
        {
          "indexed": false,
          "internalType": "address",
          "name": "to",
          "type": "address"
        },
        {
          "indexed": false,
          "internalType": "uint256",
          "name": "amount",
          "type": "uint256"
        }
      ],
      "name": "Withdrawn",
      "type": "event"
    },
    {
      "inputs": [],
      "name": "balance",
      "outputs": [
        {
          "internalType": "uint256",
          "name": "",
          "type": "uint256"
        }
      ],
      "stateMutability": "view",
      "type": "function",
      "constant": true
    },
    {
      "inputs": [],
      "name": "checkInInterval",
      "outputs": [
        {
          "internalType": "uint256",
          "name": "",
          "type": "uint256"
        }
      ],
      "stateMutability": "view",
      "type": "function",
      "constant": true
    },
    {
      "inputs": [],
      "name": "heir",
      "outputs": [
        {
          "internalType": "address",
          "name": "",
          "type": "address"
        }
      ],
      "stateMutability": "view",
      "type": "function",
      "constant": true
    },
    {
      "inputs": [],
      "name": "lastCheckIn",
      "outputs": [
        {
          "internalType": "uint256",
          "name": "",
          "type": "uint256"
        }
      ],
      "stateMutability": "view",
      "type": "function",
      "constant": true
    },
    {
      "inputs": [],
      "name": "owner",
      "outputs": [
        {
          "internalType": "address",
          "name": "",
          "type": "address"
        }
      ],
      "stateMutability": "view",
      "type": "function",
      "constant": true
    },
    {
      "stateMutability": "payable",
      "type": "receive",
      "payable": true
    },
    {
      "inputs": [],
      "name": "checkIn",
      "outputs": [],
      "stateMutability": "nonpayable",
      "type": "function"
    },
    {
      "inputs": [
        {
          "internalType": "address",
          "name": "newHeir",
          "type": "address"
        }
      ],
      "name": "changeHeir",
      "outputs": [],
      "stateMutability": "nonpayable",
      "type": "function"
    },
    {
      "inputs": [],
      "name": "withdraw",
      "outputs": [],
      "stateMutability": "nonpayable",
      "type": "function"
    },
    {
      "inputs": [],
      "name": "deposit",
      "outputs": [],
      "stateMutability": "payable",
      "type": "function",
      "payable": true
    }
  ],
  "bytecode": "0x608060405234801561001057600080fd5b506040516105f43803806105f483398101604081905261002f91610073565b60008054336001600160a01b031991821617909155600180549091166001600160a01b03841617905561006581620151806100ab565b6003555050426002556100d6565b60008060408385031215610085578182fd5b82516001600160a01b038116811461009b578283fd5b6020939093015192949293505050565b60008160001904831182151516156100d157634e487b7160e01b81526011600452602481fd5b500290565b61050f806100e56000396000f3fe60806040526004361061008a5760003560e01c8063b69ef8a811610059578063b69ef8a814610108578063bfd25fa51461012a578063d0e30db01461013f578063db78dabd14610147578063e3fd24651461015c57610099565b8063183ff0851461009e5780633ccfd60b146100b35780638da5cb5b146100c857806391f2ebb8146100f357610099565b366100995761009761017c565b005b600080fd5b3480156100aa57600080fd5b506100976101cf565b3480156100bf57600080fd5b50610097610236565b3480156100d457600080fd5b506100dd610307565b6040516100ea91906103e5565b60405180910390f35b3480156100ff57600080fd5b506100dd610316565b34801561011457600080fd5b5061011d610325565b6040516100ea91906104ac565b34801561013657600080fd5b5061011d61032b565b61009761017c565b34801561015357600080fd5b5061011d610331565b34801561016857600080fd5b506100976101773660046103b7565b610337565b346004600082825461018e91906104b5565b90915550506040517f2da466a7b24304f47e87fa2e1e5a81b9831ce54fec19055ce277ca2f39ba42c4906101c590339034906103f9565b60405180910390a1565b6000546001600160a01b031633146102025760405162461bcd60e51b81526004016101f990610475565b60405180910390fd5b426002556040517fbb83d92a935a414e89296bf0ca096d25ad231da5a7cda008d1e21095e4dd2f03906101c59033906103e5565b6001546001600160a01b031633146102605760405162461bcd60e51b81526004016101f99061043e565b60035460025461027091906104b5565b421161028e5760405162461bcd60e51b81526004016101f990610412565b6001546040516001600160a01b03909116904780156108fc02916000818181858888f193505050501580156102c7573d6000803e3d6000fd5b506001546040517f7084f5476618d8e60b11ef0d7d3f06914655adb8793e28ff7f018d4c76d505d5916101c5916001600160a01b039091169047906103f9565b6000546001600160a01b031681565b6001546001600160a01b031681565b60045481565b60035481565b60025481565b6000546001600160a01b031633146103615760405162461bcd60e51b81526004016101f990610475565b600180546001600160a01b0319166001600160a01b0383161790556040517f5d45d56e6cb610d46da623d74bdbf801d68475079da2cae164d2e7075564795d906103ac9083906103e5565b60405180910390a150565b6000602082840312156103c8578081fd5b81356001600160a01b03811681146103de578182fd5b9392505050565b6001600160a01b0391909116815260200190565b6001600160a01b03929092168252602082015260400190565b6020808252601290820152714f776e6572207374696c6c2061637469766560701b604082015260600190565b60208082526017908201527f4f6e6c7920686569722063616e2063616c6c2074686973000000000000000000604082015260600190565b60208082526018908201527f4f6e6c79206f776e65722063616e2063616c6c20746869730000000000000000604082015260600190565b90815260200190565b600082198211156104d457634e487b7160e01b81526011600452602481fd5b50019056fea2646970667358221220243550bbf77a6df2c989a8297b7c4a4bb6af1d419ebf2b8f84a7d94b8b4dd13164736f6c63430008000033",
  "immutableReferences": {},
  "source": "// SPDX-License-Identifier: MIT\r\npragma solidity ^0.8.0;\r\n\r\ncontract Inheritance {\r\n    address public owner;\r\n    address public heir;\r\n    uint public lastCheckIn;\r\n    uint public checkInInterval;\r\n    uint public balance;\r\n\r\n    event Deposited(address from, uint amount);\r\n    event Withdrawn(address to, uint amount);\r\n    event HeirChanged(address newHeir);\r\n    event CheckIn(address owner);\r\n\r\n    constructor(address _heir, uint _checkInIntervalDays) {\r\n        owner = msg.sender;\r\n        heir = _heir;\r\n        checkInInterval = _checkInIntervalDays * 1 days;\r\n        lastCheckIn = block.timestamp;\r\n    }\r\n\r\n    modifier onlyOwner() {\r\n        require(msg.sender == owner, \"Only owner can call this\");\r\n        _;\r\n    }\r\n\r\n    modifier onlyHeir() {\r\n        require(msg.sender == heir, \"Only heir can call this\");\r\n        _;\r\n    }\r\n\r\n    function checkIn() public onlyOwner {\r\n        lastCheckIn = block.timestamp;\r\n        emit CheckIn(msg.sender);\r\n    }\r\n\r\n    function changeHeir(address newHeir) public onlyOwner {\r\n        heir = newHeir;\r\n        emit HeirChanged(newHeir);\r\n    }\r\n\r\n    function withdraw() public onlyHeir {\r\n        require(block.timestamp > lastCheckIn + checkInInterval, \"Owner still active\");\r\n        payable(heir).transfer(address(this).balance);\r\n        emit Withdrawn(heir, address(this).balance);\r\n    }\r\n\r\n    function deposit() public payable {\r\n        balance += msg.value;\r\n        emit Deposited(msg.sender, msg.value);\r\n    }\r\n\r\n    receive() external payable {\r\n        deposit();\r\n    }\r\n}",
  "sourcePath": "D:\\Hackathons\\dead-mans-switch\\contracts\\Inheritance.sol",
  "compiler": {
    "name": "solc",
    "version": "0.8.0+commit.c7dfd78e.Emscripten.clang"
  },
  "schemaVersion": "3.4.16",
  "updatedAt": "2025-03-30T17:42:13.010Z",
  "networkType": "ethereum",
  "devdoc": {
    "kind": "dev",
    "methods": {},
    "version": 1
  },
  "userdoc": {
    "kind": "user",
    "methods": {},
    "version": 1
  }
}